:100000000C9473000C949B000C949B000C949B002C
:100010000C949B000C949B000C949B000C949B00F4
:100020000C949B000C949B000C949B000C94BF05BB
:100030000C949B000C949B000C949B000C949B00D4
:100040000C941D050C949B000C948D050C94670575
:100050000C949B000C949B000C949B000C949B00B4
:100060000C949B000C949B00005EBCE2613FDD831E
:10007000C29C7E20A3FD1F41009D23BE46DB65F888
:100080008C11AF32CA57E974000000002400270029
:100090002A0000000000250028002B0000000008B6
:1000A000000201000003040700000000000000003F
:1000B00000000000230026002900040404040404B6
:1000C0000404020202020202030303030303010207
:1000D00004081020408001020408102001020408D6
:1000E00010207B06D90B11241FBECFEFD8E0DEBF56
:1000F000CDBF11E0A0E0B1E0E2E3FCE102C0059079
:100100000D92A833B107D9F722E0A8E3B1E001C00E
:100110001D92AA34B207E1F710E0C2E7D0E004C0B4
:100120002197FE010E94060EC137D107C9F70E9430
:1001300048070C940C0E0C940000E0910C02EC307B
:1001400088F540910D0228E830E0241B310947FD75
:100150003395220F331F220F331F8217930784F02A
:1001600040910E0228E532E0241B310947FD33950A
:10017000220F331F220F331F821793070CF49C01A9
:1001800022503109220F331F4FB7F8948E2F90E081
:10019000FC01EE0FFF1FE80FF91FE152FE4F328303
:1001A00021834FBF089590E0FC01E456FF4F249156
:1001B000FC01E253FF4F3491FC01E654FF4FE49100
:1001C000EE23C9F0222339F0233001F1A8F42130C5
:1001D00019F1223029F1F0E0EE0FFF1FEE56FF4F2C
:1001E000A591B4918FB7F894EC91611126C0309528
:1001F0003E233C938FBF08952730A9F02830C9F0E3
:10020000243049F7809180008F7D03C08091800069
:100210008F7780938000DFCF84B58F7784BDDBCF6D
:1002200084B58F7DFBCF8091B0008F778093B00035
:10023000D2CF8091B0008F7DF9CF3E2BDACFCF9314
:10024000DF9390E0FC01E253FF4F249186549F4FCF
:10025000FC0184918823D1F090E0880F991FFC0164
:10026000E857FF4FA591B491FC01EE56FF4FC591A1
:10027000D49161110EC09FB7F8948C91E22FE09554
:100280008E238C932881E223E8839FBFDF91CF9157
:1002900008958FB7F894EC91E22BEC938FBFF6CFD3
:1002A0003FB7F89480913E0190913F01A0914001A9
:1002B000B091410126B5A89B05C02F3F19F00196CA
:1002C000A11DB11D3FBFBA2FA92F982F8827BC01B0
:1002D000CD01620F711D811D911D42E0660F771FD8
:1002E000881F991F4A95D1F708958F929F92AF92D8
:1002F000BF92CF92DF92EF92FF926B017C010E943E
:1003000050014B015C01C114D104E104F104B9F0C6
:100310000E945001681979098A099B09683E734057
:100320008105910580F321E0C21AD108E108F108A6
:1003300088EE880E83E0981EA11CB11CE4CFFF90CC
:10034000EF90DF90CF90BF90AF909F908F900895E7
:10035000AF92BF92CF92DF92EF92FF920F931F93D3
:10036000CF93DF936C017B018B01040F151FEB0111
:100370005E01AE18BF08C017D10759F06991D601C8
:10038000ED91FC910190F081E02DC6010995892B3A
:1003900079F7C501DF91CF911F910F91FF90EF90F9
:1003A000DF90CF90BF90AF900895FC01538D448DA6
:1003B000252F30E0842F90E0821B930B541710F010
:1003C000CF96089501970895FC01918D828D98171D
:1003D00061F0A28DAE0FBF2FB11D5D968C91928DF5
:1003E0009F5F9F73928F90E008958FEF9FEF089526
:1003F000FC01918D828D981731F0828DE80FF11DEF
:10040000858D90E008958FEF9FEF0895FC01918D09
:10041000228D892F90E0805C9F4F821B91098F7302
:100420009927089582E491E00E94060221E0892B39
:1004300009F420E0822F089580E090E0892B29F0D4
:100440000E94120281110C9400000895FC01A48DF9
:10045000A80FB92FB11DA35ABF4F2C91848D90E0E6
:1004600001968F739927848FA689B7892C93A089C9
:10047000B1898C91837080648C93938D848D981353
:1004800006C00288F389E02D80818F7D80830895E6
:10049000EF92FF920F931F93CF93DF93EC0181E0D4
:1004A000888F9B8D8C8D98131AC0E889F98980817B
:1004B00085FF15C09FB7F894EE89FF896083E889AE
:1004C000F98980818370806480839FBF81E090E0A0
:1004D000DF91CF911F910F91FF90EF900895F62E2D
:1004E0000B8D10E00F5F1F4F0F731127E02E8C8DC7
:1004F0008E110CC00FB607FCFACFE889F98980810C
:1005000085FFF5CFCE010E942602F1CFEB8DEC0FD7
:10051000FD2FF11DE35AFF4FF0829FB7F8940B8F28
:10052000EA89FB8980818062CFCFCF93DF93EC0192
:10053000888D8823B9F0AA89BB89E889F9898C91CB
:1005400085FD03C0808186FD0DC00FB607FCF7CF87
:100550008C9185FFF2CF808185FFEDCFCE010E9487
:100560002602E9CFDF91CF910895DC0180E0615050
:1005700090F09D919827E92FEF70F0E0E859FF4F38
:100580002491E92FE295EF70F0E0E858FF4FE491F5
:10059000822F8E27ECCF0895FC01138615861486D2
:1005A0001286118610861782168215821482138293
:1005B0000895DC012C911196ED91FC91F8948181C4
:1005C000822B81839281322F30959323928387E00F
:1005D00090E00197F1F781818323818383E290E0AA
:1005E0000197F1F790817894EFECF0E03197F1F713
:1005F000922381E009F480E00895FC01908101805C
:10060000F281E02D292F209560FF14C0F89482819B
:10061000822382838181892B8183A3E2B0E01197B9
:10062000F1F78281982B9283789487ED90E001977F
:10063000F1F70895F8948281822382838181892B46
:100640008183AFEFB0E01197F1F78281982B92830D
:1006500078948FE090E0EBCFDF92EF92FF920F93D0
:100660001F93CF93DF93EC01D62EE42E08E010E029
:10067000FF24F39461E08D2D8F2109F460E0CE0119
:100680000E94FD02FF0C01501109A1F7E11010C0FA
:10069000F894E981FA819181888180958923818309
:1006A000E981FA8192818881809589238283789477
:1006B000DF91CF911F910F91FF90EF90DF90089500
:1006C000EF92FF920F931F93CF93DF938C017B01E7
:1006D00040E065E50E942C03E70188E0E80EF11C8C
:1006E000699140E0C8010E942C03CE15DF05C1F7D7
:1006F000DF91CF911F910F91FF90EF900895FC0132
:1007000090810180F281E02DF8948181292F20953C
:100710008223818378943DE743E050E0315029F112
:10072000DA011197F1F780818923C1F3F89482816E
:10073000822382838181892B81837894ABE7B7E020
:100740001197F1F7F894818182238183A3E1B1E0CD
:100750001197F1F78081982381E009F080E0789487
:10076000E3E6F6E03197F1F7089580E008958F927F
:100770009F92AF92BF92CF92DF92EF92FF920F9330
:100780001F93CF93DF938C01EB018091190290911D
:100790001A020E947F03811102C090E03EC0B8019E
:1007A0008091190290911A020E94600340E06EEB62
:1007B0008091190290911A020E942C038E015E0111
:1007C00089E0A80EB11C8090190290901A0288E06E
:1007D000C82ED12CF12CEE24E394C4010E94D9023E
:1007E0008111FE28EE0CE1E0CE1AD108B1F7F80134
:1007F000F1928F01EA15FB0531F780911902909172
:100800001A020E947F03813041F668E0CE010E9407
:10081000B50291E028852813C0CF892FDF91CF91B1
:100820001F910F91FF90EF90DF90CF90BF90AF900E
:100830009F908F900895CF93DF93CDB7DEB7299720
:100840000FB6F894DEBF0FBECDBFFC012081203172
:1008500099F0BE016F5F7F4F0E94B703882331F08C
:100860008D818F33A9F020F48F31A1F080E007C093
:100870008F3521F08F37D1F78CE001C08BE02996BE
:100880000FB6F894DEBF0FBECDBFDF91CF910895B4
:100890008AE0F5CF89E0F3CFBF92CF92DF92EF925B
:1008A000FF920F931F93CF93DF93EC01B62EC72EC9
:1008B0008D85811105C0CE010E947F0381110EC07C
:1008C0001B861D861C8680E0DF91CF911F910F91C2
:1008D000FF90EF90DF90CF90BF90089540E060EFE1
:1008E000CE010E942C0301E0E12CD12C11E0CE01BD
:1008F0000E94D902F82ECE010E94D90291E0F9128D
:1009000018C0813099F51134D8F2DB86D11002C0BD
:1009100081E08D878B81882399F22396EB2DFC2D26
:10092000CF01089629912193E817F907D9F781E0BB
:10093000CBCFEE2DF0E0F8120FC08B851817A0F486
:10094000DE01AE0FBF1F13968C91802379F4F12C3A
:10095000193008F41C87D12EEC0FFD1F8381902FD6
:100960009095892383830AC08113F1CFFE01EE0D98
:10097000F11D8381802B8383FF24F3946F2DCE019F
:100980000E94FD021F5F000F11F4E39401E087E075
:100990008E1508F0ACCFB7CFFC0101900020E9F72D
:1009A0003197AF01481B590BBC0182E491E00C94D4
:1009B000A8018F929F92AF92BF920F931F93CF93F4
:1009C000DF93CDB7DEB7A1970FB6F894DEBF0FBEA9
:1009D000CDBF19A2423008F44AE08E010F5D1F4FCF
:1009E000842E912CB12CA12CA50194010E94DF0B27
:1009F000E62FB901CA01EA30F4F4E05DD801EE93C4
:100A00008D01232B242B252B79F790E080E0109784
:100A100019F0CD010E94CC04A1960FB6F894DEBF68
:100A20000FBECDBFDF91CF911F910F91BF90AF90BF
:100A30009F908F900895E95CE1CF1F920F920FB6BF
:100A40000F9211242F933F938F939F93AF93BF9354
:100A500080913A0190913B01A0913C01B0913D0100
:100A60003091390123E0230F2D3758F50196A11D50
:100A7000B11D2093390180933A0190933B01A093DB
:100A80003C01B0933D0180913E0190913F01A091C6
:100A90004001B09141010196A11DB11D80933E011D
:100AA00090933F01A0934001B0934101BF91AF915A
:100AB0009F918F913F912F910F900FBE0F901F909C
:100AC000189526E8230F0296A11DB11DD2CF1F92C3
:100AD0000F920FB60F9211242F933F934F935F9372
:100AE0006F937F938F939F93AF93BF93EF93FF93F6
:100AF00082E491E00E942602FF91EF91BF91AF91B5
:100B00009F918F917F916F915F914F913F912F9125
:100B10000F900FBE0F901F9018951F920F920FB657
:100B20000F9211242F938F939F93EF93FF93E09154
:100B30005201F09153018081E0915801F0915901E7
:100B400082FD1BC0908180915B018F5F8F7320912C
:100B50005C01821741F0E0915B01F0E0EE5BFE4F3B
:100B6000958F80935B01FF91EF919F918F912F91D2
:100B70000F900FBE0F901F9018958081F4CF1F9299
:100B80000F920FB60F9211242F933F934F935F93C1
:100B90006F937F938F939F93AF93BF93CF93DF9385
:100BA000EF93FF9380913801C0910302D0E087FF5B
:100BB00024C01092850010928400809138018F5FCC
:100BC0008093380180913801082E000C990B8C1706
:100BD0009D0724F4809138018C30C4F18091840009
:100BE00090918500049680349C4908F47AC08091E5
:100BF000840090918500049676C080913801082E7B
:100C0000000C990B8C179D07C4F6E09138018E2FCC
:100C1000EE0F990BFC01EE0FFF1FE80FF91FE152D9
:100C2000FE4F808186FFC9CFE09138018E2FEE0FF5
:100C3000990BFC01EE0FFF1FE80FF91FE152FE4F69
:100C4000808160E08F730E94D300B7CF2091840031
:100C500030918500E09138018E2FEE0F990BFC0149
:100C6000EE0FFF1FE80FF91FE152FE4F81819281C5
:100C7000820F931F9093890080938800E091380140
:100C80008E2FEE0F990BFC01EE0FFF1FE80FF91FDF
:100C9000E152FE4F808186FF11C0E09138018E2F16
:100CA000EE0F990BFC01EE0FFF1FE80FF91FE15249
:100CB000FE4F808161E08F730E94D300FF91EF911E
:100CC000DF91CF91BF91AF919F918F917F916F9164
:100CD0005F914F913F912F910F900FBE0F901F90FA
:100CE000189580E49CE990938900809388008FEFA9
:100CF00080933801E3CFCF93DF9310924501109298
:100D0000440188EE93E0A0E0B0E080934601909328
:100D10004701A0934801B09349018EE091E0909380
:100D200043018093420185EC90E090934F018093C2
:100D30004E0184EC90E0909351018093500180EC3F
:100D400090E0909353018093520181EC90E0909356
:100D500055018093540182EC90E090935701809369
:100D6000560186EC90E090935901809358011092BF
:100D70005B0110925C0110925D0110925E0160E0D7
:100D800082E00E941F01E0EDF0E0E491CCE3D2E0CC
:100D9000E0933C02ECEBF0E0E491F0E0EE0FFF1F9B
:100DA000E055FF4F8591949190933E0280933D02D0
:100DB000CE010E94CC021092260210922502D093FE
:100DC0001202C0931102D0931A02C093190210921A
:100DD0001702109218021092130289E080931402F5
:100DE00081E08093150280931602109237021092D0
:100DF00038021092390210923A0210923B0210927D
:100E0000300210922F021092310210923202109290
:100E100033021092340288EE93E09093360280936E
:100E20003502809103028C3078F591E0980F909311
:100E3000030280930C0290E0FC01EE0FFF1FE80F0D
:100E4000F91FE152FE4F88EB9BE09283818383E0A0
:100E500090E09093100280930F0288EE93E09093BD
:100E600005028093040280ED97E09093070280933F
:100E70000602109208021092090210920A021092C1
:100E80000B02DF91CF9108958FEF80930C02DFCF9B
:100E9000CF93DF93CDB7DEB761970FB6F894DEBF7F
:100EA0000FBECDBF789484B5826084BD84B5816067
:100EB00084BD85B5826085BD85B5816085BD809125
:100EC0006E00816080936E0010928100809181009D
:100ED0008260809381008091810081608093810095
:100EE000809180008160809380008091B100846057
:100EF0008093B1008091B00081608093B0008091B8
:100F00007A00846080937A0080917A008260809376
:100F10007A0080917A00816080937A0080917A00D3
:100F2000806880937A001092C10061E08DE00E9499
:100F30001F01E0915201F091530182E08083E09122
:100F40004E01F0914F011082E0915001F09151015A
:100F500080E1808310925A01E0915601F09157018F
:100F600086E08083E0915401F09155018081806199
:100F70008083E0915401F0915501808188608083E5
:100F8000E0915401F0915501808180688083E09167
:100F90005401F091550180818F7D80838CE191E037
:100FA0000E94CC0488E291E00E94CC048091190256
:100FB00090911A020E94CC0210921702109218020D
:100FC00011E0BE016F5F7F4F8091190290911A026C
:100FD0000E944C04882309F45FC067E0CE010196AB
:100FE0000E94B50298858913ECCF8091130281117C
:100FF00028C08091190290911A020E947F03BE01BD
:101000006F5F7F4F8091190290911A020E946003D6
:1010100040E064EB8091190290911A020E942C0327
:101020008091190290911A020E94D902082F809192
:10103000190290911A020E947F03011102C01093BD
:10104000130200911402CE0101960E941B04801726
:10105000C0F48091140280931402809117028F5F74
:10106000809317028981883231F080F4803119F041
:10107000823209F0A6CF809118028F5F8093180208
:10108000A0CFCE0101960E941B04E5CF8B3399F3CC
:10109000823409F096CFEFCF8091170290E09093C1
:1010A000300280932F0280911102909112020E94CF
:1010B000CC0267E272E080911102909112020E94CC
:1010C0004C0487E292E00E941B048C3009F478C043
:1010D000BE016F5F7F4F87E292E00E94B7038823D3
:1010E00009F46EC080912702803109F469C08FE74E
:1010F0008D838091190290911A020E947F0367E20A
:1011000072E08091190290911A020E94600340E0FF
:101110006EE48091190290911A020E942C0340E023
:101120006B818091190290911A020E942C0340E079
:101130006C818091190290911A020E942C03809177
:101140002702803141F040E06D8180911902909139
:101150001A020E942C038091190290911A020E9497
:101160007F0367E272E08091190290911A020E9457
:1011700060034091130268E48091190290911A0271
:101180000E942C0364E170E080E090E00E94750111
:1011900080911302882331F06AE070E080E090E0F3
:1011A0000E9475018091190290911A020E947F039A
:1011B000809114028D3008F03EC18CE080931402BF
:1011C00084EC99E0909336028093350280910C0272
:1011D0008C3008F052C010910F0261E0812F0E9404
:1011E0001F0120910C02822F90E0FC01EE0FFF1FE7
:1011F000E80FF91FE152FE4F1F738081807C812B25
:10120000808310920D0210920E023CE0822F632F19
:101210000E94D20D839FB001112450E040E0DB0119
:10122000A40FB51FFD01EE0FFF1FEA0FFB1FE152D8
:10123000FE4F908196FD16C04F5F5F4F4C305105B9
:1012400071F781110FC01092800082E080938100BD
:101250001092850010928400B19A80916F00826094
:1012600080936F0030E0F901EE0FFF1FE20FF31FD4
:10127000E152FE4F80818064808380E090E0A0E0B6
:10128000BFE38093080290930902A0930A02B093EF
:101290000B02009104021091050260910602709108
:1012A0000702601B710B90E080E00E94A90C20E017
:1012B00030E040E05FE30E94600D6B017C01B8010B
:1012C00090E080E00E94A90C9B01AC01C701B6012F
:1012D0000E94020C0E94730CCB010E949D0000E052
:1012E00010E0812C912CB0E4AB2EBFE3BB2E8FB766
:1012F000F89440913A0150913B0160913C0170910A
:101300003D018FBF2091350230913602809131022C
:1013100090913202A0913302B0913402820F931F58
:10132000A11DB11D84179507A607B70708F017C1BF
:1013300061E08DE00E94D3002FB7F89480913A01CC
:1013400090913B01A0913C01B0913D012FBF809352
:10135000310290933202A0933302B0933402809111
:10136000190290911A020E947F0340E06CEC809178
:10137000190290911A020E942C034091130264E416
:101380008091190290911A020E942C0380911502FB
:10139000882309F442C0E0911402E9506EEE72E035
:1013A000E33038F4F0E0EE0FFF1FEC5FFE4F60819A
:1013B000718180911602882309F47EC08091130206
:1013C00081117AC08FB7F89440903A0150903B0158
:1013D00060903C0170903D018FBF6B01770FEE086C
:1013E000FF088091190290911A020E94D90281305F
:1013F000A1F02FB7F89480913A0190913B01A09110
:101400003C01B0913D012FBF8C199D09AE09BF0968
:1014100084159505A605B70520F3BE016F5F7F4FC4
:1014200087E292E00E94B70381114DC060E070E056
:101430008EEF92EC85C08CE08093140210E000E007
:10144000809117028017110609F00CF4B9CEE02E36
:101450008091190290911A020E94CC02F12CBE01D7
:10146000665F7F4F8091190290911A020E944C048E
:10147000882329F0EF1491F0F394EF1480F7F090A3
:101480001402CE010A960E941B048F1580F48091ED
:101490001402809314020F5F1F4FD2CF67E0CE017A
:1014A0000A960E94B50299898913E6CFE8CFCE014A
:1014B0000A960E941B04EDCF072E000C880B990B97
:1014C0000E947501AACF6A8170E0762F6627770F98
:1014D000770F770F298148E0249F90011124262B54
:1014E000372B809127028031D1F4688570E08F819D
:1014F000DB01A81BB109CD019695982F88279795F8
:1015000087950E94DE0DCB014097B90153E0660F2D
:10151000771F5A95E1F760789C01260F371F213815
:10152000B4EE3B070CF482CFB901330F880B990B53
:101530000E94AB0C20E030E040E05CE30E94600DD4
:1015400060933702709338028093390290933A0285
:1015500081E080933B0260E08DE00E94D3008091A7
:101560003B02882309F47AC010923B02C0903702F4
:10157000D0903802E0903902F0903A02A70196012B
:10158000C701B6010E94CD0D882309F473C08BE218
:1015900091E00E94CC0488E291E00E94CC0420E01B
:1015A00030E040E05FE360910001709101018091C3
:1015B0000201909103010E946E0C87FFEDC08092A2
:1015C000000190920101A0920201B09203014090AB
:1015D000000150900101609002017090030120E031
:1015E00030E0A901C301B2010E946E0C87FD36C034
:1015F00020E030E040E85FE3C301B2010E945B0DF0
:10160000181664F1409208025092090260920A0290
:1016100070920B02E0900402F090050260910602C5
:10162000709107026E197F0990E080E00E94A90C7A
:10163000A30192010E94600D2B013C01B70190E0D3
:1016400080E00E94A90C9B01AC01C301B2010E9481
:10165000020C0E94730CCB010E949D000115110524
:1016600009F445CE0E941202882309F440CE0E945C
:1016700000003DCE26013701E89477F82FEF3FEFC9
:101680004FE75FE7C301B2010E94CD0D81110DC08C
:101690002FEF3FEF4FE75FE7C301B2010E946E0CEF
:1016A00018161CF48FE291E074CF2FEF3FEF4FE755
:1016B0005FE4C701B6010E945B0D18161CF483E3BA
:1016C00091E067CF2FEF3FEF4FE75FECC701B60127
:1016D0000E946E0C87FDF3CF20E030E0A901C70126
:1016E000B6010E946E0C87FF09C06DE282E491E0B2
:1016F0000E944802F7FAF094F7F8F0942AE037EDE8
:1017000043EA5BE3C701B6010E94020C2B013C01D6
:101710000E947A0C6B017C010E94A90C9B01AC0118
:10172000C301B2010E94010C2B013C014AE0C70138
:10173000B6010E94D9046EE282E491E00E94480260
:1017400020E030E040E251E4C301B2010E94600DAC
:101750002B013C010E947A0C6B01F12CE12C4AE038
:10176000C701B6010E94D904C701B6010E94A90CA5
:101770009B01AC01C301B2010E94010C20E030E0EA
:1017800040E251E40E94600D0E947A0C90E080E0FB
:101790004AE00E94D904FFCE80E090E0A0E8BEE3DA
:1017A0008093000190930101A0930201B093030183
:1017B0000ECF80911102909112020C947F03A1E24E
:1017C0001A2EAA1BBB1BFD010DC0AA1FBB1FEE1FBB
:1017D000FF1FA217B307E407F50720F0A21BB30B06
:1017E000E40BF50B661F771F881F991F1A9469F782
:1017F00060957095809590959B01AC01BD01CF01DE
:1018000008955058BB27AA270E94190C0C94210D4B
:101810000E94130D38F00E941A0D20F039F49F3FFA
:1018200019F426F40C94100D0EF4E095E7FB0C94DB
:101830000A0DE92F0E94320D58F3BA176207730799
:101840008407950720F079F4A6F50C94540D0EF456
:10185000E0950B2EBA2FA02D0B01B90190010C01C0
:10186000CA01A0011124FF27591B99F0593F50F4D8
:10187000503E68F11A16F040A22F232F342F442730
:10188000585FF3CF469537952795A795F040539528
:10189000C9F77EF41F16BA0B620B730B840BBAF0F8
:1018A0009150A1F0FF0FBB1F661F771F881FC2F763
:1018B0000EC0BA0F621F731F841F48F48795779577
:1018C0006795B795F7959E3F08F0B0CF9395880F31
:1018D00008F09927EE0F9795879508950E94E60CDA
:1018E00008F481E008950E947A0C6894B1110C9478
:1018F000550D08950E943A0D88F09F5798F0B92F22
:101900009927B751B0F0E1F0660F771F881F991F34
:101910001AF0BA95C9F714C0B13091F00E94540D75
:10192000B1E008950C94540D672F782F8827B85F85
:1019300039F0B93FCCF3869577956795B395D9F78C
:101940003EF490958095709561957F4F8F4F9F4F96
:101950000895E89409C097FB3EF4909580957095A2
:1019600061957F4F8F4F9F4F9923A9F0F92F96E9EB
:10197000BB279395F695879577956795B795F11160
:10198000F8CFFAF4BB0F11F460FF1BC06F5F7F4FFD
:101990008F4F9F4F16C0882311F096E911C077230F
:1019A00021F09EE8872F762F05C0662371F096E818
:1019B000862F70E060E02AF09A95660F771F881FE7
:1019C000DAF7880F9695879597F90895990F00088B
:1019D000550FAA0BE0E8FEEF16161706E807F90701
:1019E000C0F012161306E407F50798F0621B730B9C
:1019F000840B950B39F40A2661F0232B242B252B1D
:101A000021F408950A2609F4A140A6958FEF811DBF
:101A1000811D089597F99F6780E870E060E0089560
:101A20009FEF80EC089500240A94161617061806F6
:101A30000906089500240A941216130614060506D2
:101A40000895092E0394000C11F4882352F0BB0F63
:101A500040F4BF2B11F460FF04C06F5F7F4F8F4FC6
:101A60009F4F089557FD9058440F551F59F05F3F01
:101A700071F04795880F97FB991F61F09F3F79F0B0
:101A800087950895121613061406551FF2CF469532
:101A9000F1DF08C0161617061806991FF1CF8695B4
:101AA0007105610508940895E894BB276627772798
:101AB000CB0197F908950E94E60C08F48FEF089582
:101AC0000E94730D0C94210D0E94130D38F00E949A
:101AD0001A0D20F0952311F00C940A0D0C94100DA2
:101AE00011240C94550D0E94320D70F3959FC1F393
:101AF000950F50E0551F629FF001729FBB27F00DBC
:101B0000B11D639FAA27F00DB11DAA1F649F662710
:101B1000B00DA11D661F829F2227B00DA11D621F5F
:101B2000739FB00DA11D621F839FA00D611D221F19
:101B3000749F3327A00D611D231F849F600D211DFD
:101B4000822F762F6A2F11249F5750409AF0F1F080
:101B500088234AF0EE0FFF1FBB1F661F771F881FE9
:101B600091505040A9F79E3F510580F00C940A0D0A
:101B70000C94550D5F3FE4F3983ED4F3869577952A
:101B80006795B795F795E7959F5FC1F7FE2B880F8F
:101B9000911D9695879597F908950E94E60C880BFC
:101BA000990B0895991B79E004C0991F961708F0C6
:101BB000961B881F7A95C9F78095089597FB072E85
:101BC00016F4009407D077FD09D00E94F20D07FCAF
:101BD00005D03EF4909581959F4F0895709561953D
:101BE0007F4F0895AA1BBB1B51E107C0AA1FBB1F53
:101BF000A617B70710F0A61BB70B881F991F5A9599
:101C0000A9F780959095BC01CD010895EE0FFF1FB7
:101C10000590F491E02D099410E0C2E7D0E004C0F3
:101C2000FE010E94060E2196C337D107C9F7F8942A
:021C3000FFCFE4
:101C32000000803E5E00BC00770100000000480208
:101C4200A801D50195020602E401F80153746172FC
:101C520074696E672E2E2E000D0A006E616E006989
:081C62006E66006F766600005B
:00000001FF
