:100000000C945D000C9485000C9485000C94850084
:100010000C9485000C9485000C9485000C9485004C
:100020000C9485000C9485000C9485000C9485003C
:100030000C9485000C9485000C9485000C9485002C
:100040000C9433020C9485000C94A3020C947D0252
:100050000C9485000C9485000C9485000C9485000C
:100060000C9485000C9485000000000024002700FB
:100070002A0000000000250028002B0004040404CE
:100080000404040402020202020203030303030342
:10009000010204081020408001020408102001021F
:1000A00004081020000000080002010000030407FB
:1000B0000000000000000000A30311241FBECFEFCA
:1000C000D8E0DEBFCDBF11E0A0E0B1E0E0EBF7E0AB
:1000D00002C005900D92AC31B107D9F721E0ACE137
:1000E000B1E001C01D92A23CB207E1F710E0CDE5FE
:1000F000D0E004C02197FE010E94D003CC35D10787
:10010000C9F70E94D5020C94D6030C940000E1EBD1
:10011000F0E02491EDE9F0E09491E9E8F0E0E49179
:10012000EE23C9F0222339F0233001F1A8F4213065
:1001300019F1223029F1F0E0EE0FFF1FEE58FF4FCA
:10014000A591B4912FB7F894EC91811126C09095A8
:100150009E239C932FBF08952730A9F02830C9F023
:10016000243049F7209180002F7D03C0209180002A
:100170002F7720938000DFCF24B52F7724BDDBCFEE
:1001800024B52F7DFBCF2091B0002F772093B000B6
:10019000D2CF2091B0002F7DF9CF9E2BDACF3FB781
:1001A000F8948091BE019091BF01A091C001B091DF
:1001B000C10126B5A89B05C02F3F19F00196A11DCE
:1001C000B11D3FBFBA2FA92F982F8827BC01CD01A1
:1001D000620F711D811D911D42E0660F771F881F00
:1001E000991F4A95D1F708958F929F92AF92BF922F
:1001F000CF92DF92EF92FF924B015C010E94CF0001
:100200006B017C010E94CF006C197D098E099F094A
:10021000683E734081059105A8F321E0821A910898
:10022000A108B10888EEC80E83E0D81EE11CF11CBD
:1002300081149104A104B10429F7FF90EF90DF909D
:10024000CF90BF90AF909F908F900895AF92BF9244
:10025000CF92DF92EF92FF920F931F93CF93DF9392
:100260006C017B018B01040F151FEB015E01AE18C1
:10027000BF08C017D10759F06991D601ED91FC91E3
:100280000190F081E02DC6010995892B79F7C50110
:10029000DF91CF911F910F91FF90EF90DF90CF9062
:1002A000BF90AF900895FC01538D448D252F30E011
:1002B000842F90E0821B930B541710F0CF96089573
:1002C00001970895FC01918D828D981761F0A28DA0
:1002D000AE0FBF2FB11D5D968C91928D9F5F9F7366
:1002E000928F90E008958FEF9FEF0895FC01918D1C
:1002F000828D981731F0828DE80FF11D858D90E089
:1003000008958FEF9FEF0895FC01918D228D892F25
:1003100090E0805C9F4F821B91098F73992708950D
:100320008CE191E00E94840121E0892B09F420E016
:10033000822F089580E090E0892B29F00E9490019F
:1003400081110C9400000895FC01A48DA80FB92F11
:10035000B11DA35ABF4F2C91848D90E001968F73ED
:100360009927848FA689B7892C93A089B1898C910C
:10037000837080648C93938D848D981306C002885B
:10038000F389E02D80818F7D80830895EF92FF9225
:100390000F931F93CF93DF93EC0181E0888F9B8DA8
:1003A0008C8D98131AC0E889F989808185FF15C062
:1003B0009FB7F894EE89FF896083E889F989808185
:1003C0008370806480839FBF81E090E0DF91CF9154
:1003D0001F910F91FF90EF900895F62E0B8D10E076
:1003E0000F5F1F4F0F731127E02E8C8D8E110CC0E5
:1003F0000FB607FCFACFE889F989808185FFF5CF30
:10040000CE010E94A401F1CFEB8DEC0FFD2FF11D69
:10041000E35AFF4FF0829FB7F8940B8FEA89FB896C
:1004200080818062CFCFCF93DF93EC01888D8823CA
:10043000B9F0AA89BB89E889F9898C9185FD03C047
:10044000808186FD0DC00FB607FCF7CF8C9185FF2C
:10045000F2CF808185FFEDCFCE010E94A401E9CFCC
:10046000DF91CF9108951F920F920FB60F92112432
:100470002F933F938F939F93AF93BF938091BA0134
:100480009091BB01A091BC01B091BD013091B90127
:1004900023E0230F2D3758F50196A11DB11D2093A0
:1004A000B9018093BA019093BB01A093BC01B093B2
:1004B000BD018091BE019091BF01A091C001B0919A
:1004C000C1010196A11DB11D8093BE019093BF0192
:1004D000A093C001B093C101BF91AF919F918F9143
:1004E0003F912F910F900FBE0F901F90189526E807
:1004F000230F0296A11DB11DD2CF1F920F920FB6EE
:100500000F9211242F933F934F935F936F937F9399
:100510008F939F93AF93BF93EF93FF938CE191E001
:100520000E94A401FF91EF91BF91AF919F918F9194
:100530007F916F915F914F913F912F910F900FBEDF
:100540000F901F9018951F920F920FB60F921124C3
:100550002F938F939F93EF93FF93E0912C01F09152
:100560002D018081E0913201F091330182FD1BC0A9
:100570009081809135018F5F8F73209136018217B2
:1005800041F0E0913501F0E0E45EFE4F958F8093FD
:100590003501FF91EF919F918F912F910F900FBE99
:1005A0000F901F9018958081F4CF789484B5826065
:1005B00084BD84B5816084BD85B5826085BD85B507
:1005C000816085BD80916E00816080936E00109285
:1005D0008100809181008260809381008091810000
:1005E0008160809381008091800081608093800091
:1005F0008091B10084608093B1008091B0008160EF
:100600008093B00080917A00846080937A0080911A
:100610007A00826080937A0080917A008160809372
:100620007A0080917A00806880937A001092C100ED
:10063000EDE9F0E02491E9E8F0E08491882399F075
:1006400090E0880F991FFC01E859FF4FA591B491E4
:10065000FC01EE58FF4F859194918FB7F894EC917F
:10066000E22BEC938FBFE0912C01F0912D0182E001
:100670008083E0912801F09129011082E0912A0104
:10068000F0912B0180E1808310923401E0913001E0
:10069000F091310186E08083E0912E01F0912F01ED
:1006A000808180618083E0912E01F0912F01808113
:1006B00088608083E0912E01F0912F018081806815
:1006C0008083E0912E01F0912F0180818F7D8083C6
:1006D00000E010E0C4E0D0E062E370E080E090E091
:1006E0000E94F40081E00E94870062E370E080E0F5
:1006F00090E00E94F40080E00E948700219761F75B
:100700006CED75E080E090E00E94F40080E00E94D3
:10071000870046E050E062E171E08CE191E00E94E8
:10072000260142E050E069E171E08CE191E00E9435
:1007300026010115110571F20E949001882351F2E2
:100740000E940000C7CFECE1F1E01382128288EE34
:1007500093E0A0E0B0E084839583A683B78384E030
:1007600091E09183808385EC90E09587848784EC89
:1007700090E09787868780EC90E0918B808B81EC6E
:1007800090E0938B828B82EC90E0958B848B86EC4F
:1007900090E0978B868B118E128E138E148E089597
:1007A000EE0FFF1F0590F491E02D0994F894FFCF10
:1007B00000000000C60126015301130284016201FA
:0C07C0007601424C494E4B59000D0A00D6
:00000001FF
