:100000000C9473000C949B000C949B000C949B002C
:100010000C949B000C949B000C949B000C949B00F4
:100020000C949B000C949B000C949B000C940B076D
:100030000C949B000C949B000C949B000C949B00D4
:100040000C9469060C949B000C94D9060C94B3068E
:100050000C949B000C949B000C949B000C949B00B4
:100060000C949B000C949B00005EBCE2613FDD831E
:10007000C29C7E20A3FD1F41009D23BE46DB65F888
:100080008C11AF32CA57E974000000002400270029
:100090002A0000000000250028002B0000000008B6
:1000A000000201000003040700000000000000003F
:1000B00000000000230026002900040404040404B6
:1000C0000404020202020202030303030303010207
:1000D00004081020408001020408102001020408D6
:1000E0001020C707690C11241FBECFEFD8E0DEBF78
:1000F000CDBF11E0A0E0B1E0E4E0FDE102C0059079
:100100000D92AE31B107D9F723E0AEE1B1E001C005
:100110001D92A933B207E1F710E0C2E7D0E004C0B6
:100120002197FE010E946F0EC137D107C9F70E94C7
:10013000A6080C94750E0C940000E091F201EC30CE
:1001400088F54091F30128E830E0241B310947FD90
:100150003395220F331F220F331F8217930784F02A
:100160004091F40128E532E0241B310947FD339525
:10017000220F331F220F331F821793070CF49C01A9
:1001800022503109220F331F4FB7F8948E2F90E081
:10019000FC01EE0FFF1FE80FF91FEB53FE4F3283F8
:1001A00021834FBF089590E0FC01E456FF4F249156
:1001B000FC01E253FF4F3491FC01E654FF4FE49100
:1001C000EE23C9F0222339F0233001F1A8F42130C5
:1001D00019F1223029F1F0E0EE0FFF1FEE56FF4F2C
:1001E000A591B4918FB7F894EC91611126C0309528
:1001F0003E233C938FBF08952730A9F02830C9F0E3
:10020000243049F7809180008F7D03C08091800069
:100210008F7780938000DFCF84B58F7784BDDBCF6D
:1002200084B58F7DFBCF8091B0008F778093B00035
:10023000D2CF8091B0008F7DF9CF3E2BDACFCF9314
:10024000DF9390E0FC01E253FF4F249186549F4FCF
:10025000FC0184918823D1F090E0880F991FFC0164
:10026000E857FF4FA591B491FC01EE56FF4FC591A1
:10027000D49161110EC09FB7F8948C91E22FE09554
:100280008E238C932881E223E8839FBFDF91CF9157
:1002900008958FB7F894EC91E22BEC938FBFF6CFD3
:1002A0003FB7F8948091240190912501A0912601F7
:1002B000B091270126B5A89B05C02F3F19F00196E4
:1002C000A11DB11D3FBFBA2FA92F982F8827BC01B0
:1002D000CD01620F711D811D911D42E0660F771FD8
:1002E000881F991F4A95D1F708958F929F92AF92D8
:1002F000BF92CF92DF92EF92FF926B017C010E943E
:1003000050014B015C01C114D104E104F104B9F0C6
:100310000E945001681979098A099B09683E734057
:100320008105910580F321E0C21AD108E108F108A6
:1003300088EE880E83E0981EA11CB11CE4CFFF90CC
:10034000EF90DF90CF90BF90AF909F908F900895E7
:100350002FB7F894609120017091210180912201C2
:10036000909123012FBF0895AF92BF92CF92DF9259
:10037000EF92FF920F931F93CF93DF936C017B015A
:100380008B01040F151FEB015E01AE18BF08C017EB
:10039000D10759F06991D601ED91FC910190F0815E
:1003A000E02DC6010995892B79F7C501DF91CF9121
:1003B0001F910F91FF90EF90DF90CF90BF90AF9083
:1003C0000895FC01538D448D252F30E0842F90E05B
:1003D000821B930B541710F0CF9608950197089540
:1003E000FC01918D828D981761F0A28DAE0FBF2F09
:1003F000B11D5D968C91928D9F5F9F73928F90E05F
:1004000008958FEF9FEF0895FC01918D828D9817CD
:1004100031F0828DE80FF11D858D90E008958FEF0A
:100420009FEF0895FC01918D228D892F90E0805CD3
:100430009F4F821B91098F739927089588E291E05D
:100440000E94120221E0892B09F420E0822F0895F6
:1004500080E090E0892B29F00E941E0281110C940B
:1004600000000895FC01A48DA80FB92FB11DA35A57
:10047000BF4F2C91848D90E001968F739927848FC4
:10048000A689B7892C93A089B1898C9183708064E7
:100490008C93938D848D981306C00288F389E02D88
:1004A00080818F7D80830895EF92FF920F931F9339
:1004B000CF93DF93EC0181E0888F9B8D8C8D981317
:1004C0001AC0E889F989808185FF15C09FB7F89423
:1004D000EE89FF896083E889F9898081837080646F
:1004E00080839FBF81E090E0DF91CF911F910F91BA
:1004F000FF90EF900895F62E0B8D10E00F5F1F4FC9
:100500000F731127E02E8C8D8E110CC00FB607FCD7
:10051000FACFE889F989808185FFF5CFCE010E9465
:100520003202F1CFEB8DEC0FFD2FF11DE35AFF4F9F
:10053000F0829FB7F8940B8FEA89FB8980818062F3
:10054000CFCFCF93DF93EC01888D8823B9F0AA89B0
:10055000BB89E889F9898C9185FD03C0808186FD7E
:100560000DC00FB607FCF7CF8C9185FFF2CF8081CD
:1005700085FFEDCFCE010E943202E9CFDF91CF910E
:100580000895DC0180E0615090F09D919827E92F5B
:10059000EF70F0E0E859FF4F2491E92FE295EF70FA
:1005A000F0E0E858FF4FE491822F8E27ECCF0895BA
:1005B000FC01138615861486128611861086178212
:1005C00016821582148213820895DC012C911196F3
:1005D000ED91FC91F8948181822B81839281322F5D
:1005E00030959323928387E090E00197F1F7818122
:1005F0008323818383E290E00197F1F790817894DF
:10060000EFECF0E03197F1F7922381E009F480E01C
:100610000895FC0190810180F281E02D292F209521
:1006200060FF14C0F8948281822382838181892BA8
:100630008183A3E2B0E01197F1F78281982B928336
:10064000789487ED90E00197F1F70895F89482810E
:10065000822382838181892B8183AFEFB0E0119760
:10066000F1F78281982B928378948FE090E0EBCF22
:10067000DF92EF92FF920F931F93CF93DF93EC01E2
:10068000D62EE42E08E010E0FF24F39461E08D2DD7
:100690008F2109F460E0CE010E940903FF0C015094
:1006A0001109A1F7E11010C0F894E981FA81918154
:1006B0008881809589238183E981FA81928188816B
:1006C0008095892382837894DF91CF911F910F9138
:1006D000FF90EF90DF900895EF92FF920F931F939A
:1006E000CF93DF938C017B0140E065E50E943803E6
:1006F000E70188E0E80EF11C699140E0C8010E9422
:100700003803CE15DF05C1F7DF91CF911F910F910F
:10071000FF90EF900895FC0190810180F281E02D1F
:10072000F8948181292F20958223818378943DE755
:1007300043E050E0315029F1DA011197F1F780815F
:100740008923C1F3F8948281822382838181892B5A
:1007500081837894ABE7B7E01197F1F7F894818142
:1007600082238183A3E1B1E01197F1F7808198237F
:1007700081E009F080E07894E3E6F6E03197F1F764
:10078000089580E008958F929F92AF92BF92CF928A
:10079000DF92EF92FF928091FF01909100020E9400
:1007A0008B0340E06CEC8091FF01909100020E946D
:1007B00038034091F90164E48091FF0190910002B7
:1007C0000E9438038091FB01882399F1E091FA019E
:1007D000E9508EEEC82E82E0D82EE33038F4F0E0F7
:1007E000EE0FFF1FEB5FFE4FC080D1808091FC01B8
:1007F000882341F18091F901811124C00E94A80150
:100800004B015C010D2C000CEE08FF088091FF01EC
:10081000909100020E94E502813059F00E94A801E7
:100820006C197D098E099F09681579058A059B0554
:1008300068F3FF90EF90DF90CF90BF90AF909F90C4
:100840008F900895B601DD0C880B990BFF90EF9007
:10085000DF90CF90BF90AF909F908F900C947501D8
:100860008F929F92AF92BF92CF92DF92EF92FF92C0
:100870000F931F93CF93DF938C01EB018091FF01C6
:10088000909100020E948B03811102C090E03EC053
:10089000B8018091FF01909100020E946C0340E03A
:1008A0006EEB8091FF01909100020E9438038E014F
:1008B0005E0189E0A80EB11C8090FF0190900002BB
:1008C00088E0C82ED12CF12CEE24E394C4010E94C0
:1008D000E5028111FE28EE0CE1E0CE1AD108B1F755
:1008E000F801F1928F01EA15FB0531F78091FF01C4
:1008F000909100020E948B03813041F668E0CE01A6
:100900000E94C10291E028852813C0CF892FDF9172
:10091000CF911F910F91FF90EF90DF90CF90BF90FC
:10092000AF909F908F900895CF93DF93CDB7DEB7B0
:1009300029970FB6F894DEBF0FBECDBFFC01208112
:10094000203199F0BE016F5F7F4F0E9430048823F1
:1009500031F08D818F33A9F020F48F31A1F080E048
:1009600007C08F3521F08F37D1F78CE001C08BE0C5
:1009700029960FB6F894DEBF0FBECDBFDF91CF91A1
:1009800008958AE0F5CF89E0F3CFBF92CF92DF924E
:10099000EF92FF920F931F93CF93DF93EC01B62E4C
:1009A000C72E8D85811105C0CE010E948B03811158
:1009B0000EC01B861D861C8680E0DF91CF911F91A3
:1009C0000F91FF90EF90DF90CF90BF90089540E09F
:1009D00060EFCE010E94380301E0E12CD12C11E040
:1009E000CE010E94E502F82ECE010E94E50291E0C0
:1009F000F91218C0813099F51134D8F2DB86D11084
:100A000002C081E08D878B81882399F22396EB2D9C
:100A1000FC2DCF01089629912193E817F907D9F702
:100A200081E0CBCFEE2DF0E0F8120FC08B851817C8
:100A3000A0F4DE01AE0FBF1F13968C91802379F4D2
:100A4000F12C193008F41C87D12EEC0FFD1F838187
:100A5000902F9095892383830AC08113F1CFFE01E3
:100A6000EE0DF11D8381802B8383FF24F3946F2D82
:100A7000CE010E9409031F5F000F11F4E39401E00F
:100A800087E08E1508F0ACCFB7CF6F927F928F9230
:100A90009F92AF92BF92CF92DF92EF92FF920F930D
:100AA0001F93CF93DF93CDB7DEB7FC015B010DB78A
:100AB0001EB720913303309134032115310509F419
:100AC0005CC0892B09F459C06115710509F455C042
:100AD000CB016EEF70E00E94470EC5010196680FD2
:100AE000791F8DB79EB7861B970B0FB6F8949EBFE4
:100AF0000FBE8DBF6DB77EB76F5F7F4FAE0EBF1E4F
:100B000099249394F12CE12C41E050E03B016E0CD0
:100B10007F1CAE16BF06D9F08190CA0101968110E4
:100B200007C0D3019C927A0199249394AC01EECF33
:100B30006B01C40ED51ED6018C929394BFEF9B120D
:100B4000F5CFD3019C927C01CA010296EDCFF3014F
:100B50009082D901ED91FC910280F381E02DC901D1
:100B600009958091330390913403DC01ED91FC9160
:100B70000190F081E02D60E009950FB6F8941EBF5A
:100B80000FBE0DBF0FB6F8941EBF0FBE0DBFDF9195
:100B9000CF911F910F91FF90EF90DF90CF90BF907A
:100BA000AF909F908F907F906F9008958F929F92BB
:100BB000AF92BF92CF92DF92EF92FF920F931F936B
:100BC000CF93DF9300D000D01F92CDB7DEB77C016A
:100BD0006B01FC018081823029F18330A1F18130E9
:100BE00079F485E0E0E0F1E0DE01119601900D92EC
:100BF0008A95E1F765E070E0CE0101960E94450517
:100C00000F900F900F900F900F90DF91CF911F9149
:100C10000F91FF90EF90DF90CF90BF90AF909F909B
:100C20008F9008951092210280911D0290911E02D2
:100C3000A0911F02B091200289839A83AB83BC8369
:100C400064E070E0D9CF81809280A380B48020E0FE
:100C500030E0A901C501B4010E94DC0C87FD36C05B
:100C600020E030E040E85FE3C501B4010E94C90D17
:100C7000181664F18092EE019092EF01A092F001BB
:100C8000B092F1010091EA011091EB016091EC0149
:100C90007091ED01601B710B90E080E00E94170DD8
:100CA000A50194010E94CE0D4B015C01B80190E0BA
:100CB00080E00E94170D9B01AC01C501B4010E94A8
:100CC000700C0E94E10CCB010E949D00B601C7018F
:100CD00095CF1F920F920FB60F9211242F933F932F
:100CE0008F939F93AF93BF938091200190912101A7
:100CF000A0912201B091230130911F0123E0230F25
:100D00002D3758F50196A11DB11D20931F01809329
:100D1000200190932101A0932201B093230180919F
:100D2000240190912501A0912601B09127010196FF
:100D3000A11DB11D8093240190932501A09326014C
:100D4000B0932701BF91AF919F918F913F912F91C8
:100D50000F900FBE0F901F90189526E8230F029654
:100D6000A11DB11DD2CF1F920F920FB60F92112469
:100D70002F933F934F935F936F937F938F939F93A3
:100D8000AF93BF93EF93FF9388E291E00E9432020A
:100D9000FF91EF91BF91AF919F918F917F916F9153
:100DA0005F914F913F912F910F900FBE0F901F9029
:100DB00018951F920F920FB60F9211242F938F93B5
:100DC0009F93EF93FF93E0913801F0913901808177
:100DD000E0913E01F0913F0182FD1BC09081809126
:100DE00041018F5F8F7320914201821741F0E091A2
:100DF0004101F0E0E85DFE4F958F80934101FF9146
:100E0000EF919F918F912F910F900FBE0F901F9098
:100E100018958081F4CF1F920F920FB60F92112474
:100E20002F933F934F935F936F937F938F939F93F2
:100E3000AF93BF93CF93DF93EF93FF9380911E0106
:100E4000C091E901D0E087FF24C010928500109284
:100E5000840080911E018F5F80931E0180911E018E
:100E6000082E000C990B8C179D0724F480911E010D
:100E70008C30C4F180918400909185000496803478
:100E80009C4908F47AC08091840090918500049672
:100E900076C080911E01082E000C990B8C179D07BF
:100EA000C4F6E0911E018E2FEE0F990BFC01EE0FA0
:100EB000FF1FE80FF91FEB53FE4F808186FFC9CF5C
:100EC000E0911E018E2FEE0F990BFC01EE0FFF1F1C
:100ED000E80FF91FEB53FE4F808160E08F730E9493
:100EE000D300B7CF2091840030918500E0911E019E
:100EF0008E2FEE0F990BFC01EE0FFF1FE80FF91F6D
:100F0000EB53FE4F81819281820F931F9093890052
:100F100080938800E0911E018E2FEE0F990BFC014B
:100F2000EE0FFF1FE80FF91FEB53FE4F808186FF86
:100F300011C0E0911E018E2FEE0F990BFC01EE0FF8
:100F4000FF1FE80FF91FEB53FE4F808161E08F73A5
:100F50000E94D300FF91EF91DF91CF91BF91AF91AC
:100F60009F918F917F916F915F914F913F912F91C1
:100F70000F900FBE0F901F90189580E49CE99093FE
:100F80008900809388008FEF80931E01E3CFCF9379
:100F9000DF9310922B0110922A0188EE93E0A0E0DB
:100FA000B0E080932C0190932D01A0932E01B0937B
:100FB0002F018FE091E0909329018093280185EC27
:100FC00090E0909335018093340184EC90E090930D
:100FD00037018093360180EC90E090933901809343
:100FE000380181EC90E090933B0180933A0182ECD0
:100FF00090E090933D0180933C0186EC90E09093CB
:101000003F0180933E0110924101109242011092E3
:101010004301109244011092300210923203109258
:10102000310310923403109233031092360310925E
:101030003503109238031092370360E082E00E947B
:101040001F01E0EDF0E0E491C2E2D2E0E093220281
:10105000ECEBF0E0E491F0E0EE0FFF1FE055FF4F06
:10106000859194919093240280932302CE010E9453
:10107000D80210920C0210920B02D093F801C09388
:10108000F701D0930002C093FF011092FD0110926E
:10109000FE011092F90189E08093FA0181E08093CA
:1010A000FB018093FC0110921D0210921E0210920F
:1010B0001F0210922002109221021092160210922A
:1010C0001502109217021092180210921902109233
:1010D0001A0288EE93E090931C0280931B02809189
:1010E000E9018C3078F591E0980F9093E9018093B5
:1010F000F20190E0FC01EE0FFF1FE80FF91FEB5328
:10110000FE4F88EB9BE09283818389E090E090938F
:10111000F6018093F50188EE93E09093EB018093C4
:10112000EA0180ED97E09093ED018093EC0110923D
:10113000EE011092EF011092F0011092F101DF9197
:10114000CF9108958FEF8093F201DFCFCF93DF939C
:10115000CDB7DEB761970FB6F894DEBF0FBECDBF37
:10116000789484B5826084BD84B5816084BD85B582
:10117000826085BD85B5816085BD80916E0081608E
:1011800080936E0010928100809181008260809334
:101190008100809181008160809381008091800036
:1011A0008160809380008091B10084608093B10061
:1011B0008091B00081608093B00080917A0084605B
:1011C00080937A0080917A00826080937A00809187
:1011D0007A00816080937A0080917A0080688093A1
:1011E0007A001092C100E0913801F091390182E05B
:1011F0008083E0913401F09135011082E091360155
:10120000F091370180E1808310924001E0913C0130
:10121000F0913D0186E08083E0913A01F0913B013D
:10122000808180618083E0913A01F0913B0180816F
:1012300088608083E0913A01F0913B018081806871
:101240008083E0913A01F0913B0180818F7D808322
:1012500088E291E0909334038093330386ED95E028
:10126000909336038093350310923803109237031E
:1012700061E08DE00E941F018091FF0190910002CA
:101280000E94D8021092FD011092FE0111E0BE01F1
:101290006F5F7F4F8091FF01909100020E94C50413
:1012A000882309F45FC067E0CE0101960E94C10265
:1012B00098858913ECCF8091F901811128C0809124
:1012C000FF01909100020E948B03BE016F5F7F4F70
:1012D0008091FF01909100020E946C0340E064EB5A
:1012E0008091FF01909100020E9438038091FF01DC
:1012F000909100020E94E502082F8091FF019091D9
:1013000000020E948B03011102C01093F9010091A9
:10131000FA01CE0101960E9494048017C0F48091D6
:10132000FA018093FA018091FD018F5F8093FD01A6
:101330008981883231F080F4803119F0823209F0ED
:10134000A6CF8091FE018F5F8093FE01A0CFCE01DA
:1013500001960E949404E5CF8B3399F3823409F00F
:1013600096CFEFCF8091FD0190E09093160280938D
:1013700015028091F7019091F8010E94D8026DE06A
:1013800072E08091F7019091F8010E94C5048DE010
:1013900092E00E9494048C3009F478C0BE016F5F23
:1013A0007F4F8DE092E00E943004882309F46EC0E4
:1013B00080910D02803109F469C08FE78D8380919F
:1013C000FF01909100020E948B036DE072E080911A
:1013D000FF01909100020E946C0340E06EE4809156
:1013E000FF01909100020E94380340E06B818091E0
:1013F000FF01909100020E94380340E06C818091CF
:10140000FF01909100020E94380380910D0280310B
:1014100041F040E06D818091FF01909100020E94B7
:1014200038038091FF01909100020E948B036DE0D0
:1014300072E08091FF01909100020E946C03409144
:10144000F90168E48091FF01909100020E94380345
:1014500064E170E080E090E00E9475018091F90104
:10146000882331F06AE070E080E090E00E9475012E
:101470008091FF01909100020E948B038091FA01FC
:101480008D3008F018C18CE08093FA011092FB01B6
:101490000E94C3030E94A801609317027093180270
:1014A0008093190290931A028EEE92E090931C02A0
:1014B00080931B021091F5018091F2018C3008F0AD
:1014C00050C061E0812F0E941F012091F201822F04
:1014D00090E0FC01EE0FFF1FE80FF91FEB53FE4FEA
:1014E0001F738081807C812B80831092F301109286
:1014F000F4013CE0822F632F0E943B0E839FB001DA
:10150000112450E040E0DB01A40FB51FFD01EE0FF8
:10151000FF1FEA0FFB1FEB53FE4F908196FD16C095
:101520004F5F5F4F4C30510571F781110FC0109222
:10153000800082E0809381001092850010928400E8
:10154000B19A80916F00826080936F0030E0F90162
:10155000EE0FFF1FE20FF31FEB53FE4F80818064FD
:10156000808380E090E0A0E0BFE38093EE01909361
:10157000EF01A093F001B093F1010091EA01109105
:10158000EB016091EC017091ED01601B710B90E03B
:1015900080E00E94170D20E030E040E05FE30E9411
:1015A000CE0D6B017C01B80190E080E00E94170D28
:1015B0009B01AC01C701B6010E94700C0E94E10CB6
:1015C000CB010E949D0000E010E0FF24F394809185
:1015D000330390913403892B09F4F3C080913303D2
:1015E00090913403DC01ED91FC910084F185E02DB4
:1015F0000995181619060CF0E4C0809133039091F8
:101600003403DC01ED91FC910284F385E02D099512
:101610008111BFC0809035039090360381149104EE
:1016200039F48091370390913803892B09F49FC0D6
:10163000CDB6DEB66091310370913203EDB7FEB7DF
:10164000E61BF70B0FB6F894FEBF0FBEEDBF8DB7CC
:101650009EB701966115710509F47CC050E040E029
:1016600030E020E02617370708F076C0F901EF5C7C
:10167000FD4FF0815901AF0EB11C6A157B0518F4BE
:10168000F13009F067C02F5F3F4F5C01A40EB51E1B
:10169000E1E0A501481B590BEF1708F04DC02F5F83
:1016A0003F4FA901405D5D4FDA014C91D5014D934B
:1016B0005D01EF5FEECF8CE08093FA0110E000E077
:1016C0008091FD018017110609F00CF4DFCED02EB9
:1016D0008091FF01909100020E94D802F12CBE017E
:1016E000665F7F4F8091FF01909100020E94C504C8
:1016F000882329F0FD1491F0F394DF1480F7F09023
:10170000FA01CE010A960E9494048F1580F480910C
:10171000FA018093FA010F5F1F4FD2CF67E0CE012D
:101720000A960E94C10299898913E6CFE8CFCE01BB
:101730000A960E949404EDCFFF3F09F493CF6217FD
:10174000730709F48FCFFC01E40FF51F10824F5F80
:101750005F4F88CF50E040E08114910479F0BA01E6
:10176000F40109950FB6F894DEBE0FBECDBE1092FF
:101770003203109231031092300230CFE0913703E0
:10178000F0913803309771F3BC0180E392E0099542
:10179000E9CF2091310330913203A9014F5F5F4FB0
:1017A0004F3F510509F050F45093320340933103F9
:1017B000205D3D4FD90111968C9310CFF0923002ED
:1017C0000DCF0E94A801AB01BC0120911B023091FA
:1017D0001C028091170290911802A0911902B091F9
:1017E0001A02820F931FA11DB11D84179507A6072A
:1017F000B70708F062C0109221020E94A80160930E
:101800001702709318028093190290931A02BE0176
:101810006F5F7F4F8DE092E00E943004811105C020
:1018200060E070E08EEF92EC3CC06A8170E0762F51
:101830006627770F770F770F2981B8E02B9F9001EC
:101840001124262B372B80910D028031D1F468852D
:1018500070E08F81FB01E81BF109CF019695982F6D
:101860008827979587950E945B0ECB014097B90119
:1018700053E0660F771F5A95E1F760789C01260FB9
:10188000371F2138F4EE3F075CF2B901330F880BA4
:10189000990B0E94190D20E030E040E05CE30E94CB
:1018A000CE0D60931D0270931E0280931F029093D1
:1018B00020020E94C303F09221020115110509F4D0
:1018C00086CE0E941E02882309F481CE0E94000069
:1018D0007ECE8091F7019091F8010C948B035058C3
:1018E000BB27AA270E94870C0C948F0D0E94810DA4
:1018F00038F00E94880D20F039F49F3F19F426F447
:101900000C947E0D0EF4E095E7FB0C94780DE92F16
:101910000E94A00D58F3BA17620773078407950752
:1019200020F079F4A6F50C94C20D0EF4E0950B2E80
:10193000BA2FA02D0B01B90190010C01CA01A00121
:101940001124FF27591B99F0593F50F4503E68F17C
:101950001A16F040A22F232F342F4427585FF3CFBD
:10196000469537952795A795F0405395C9F77EF48E
:101970001F16BA0B620B730B840BBAF09150A1F0D7
:10198000FF0FBB1F661F771F881FC2F70EC0BA0F5D
:10199000621F731F841F48F4879577956795B795E5
:1019A000F7959E3F08F0B0CF9395880F08F09927E0
:1019B000EE0F9795879508950E94540D08F481E0E5
:1019C00008950E94E80C6894B1110C94C30D089519
:1019D0000E94A80D88F09F5798F0B92F9927B7510A
:1019E000B0F0E1F0660F771F881F991F1AF0BA95C3
:1019F000C9F714C0B13091F00E94C20DB1E0089552
:101A00000C94C20D672F782F8827B85F39F0B93F43
:101A1000CCF3869577956795B395D9F73EF4909575
:101A20008095709561957F4F8F4F9F4F0895E894F3
:101A300009C097FB3EF490958095709561957F4F16
:101A40008F4F9F4F9923A9F0F92F96E9BB279395C4
:101A5000F695879577956795B795F111F8CFFAF4D4
:101A6000BB0F11F460FF1BC06F5F7F4F8F4F9F4F05
:101A700016C0882311F096E911C0772321F09EE863
:101A8000872F762F05C0662371F096E8862F70E0C9
:101A900060E02AF09A95660F771F881FDAF7880FA3
:101AA0009695879597F90895990F0008550FAA0BF9
:101AB000E0E8FEEF16161706E807F907C0F0121661
:101AC0001306E407F50798F0621B730B840B950B64
:101AD00039F40A2661F0232B242B252B21F40895B9
:101AE0000A2609F4A140A6958FEF811D811D089556
:101AF00097F99F6780E870E060E008959FEF80ECC1
:101B0000089500240A941616170618060906089563
:101B100000240A9412161306140605060895092EC9
:101B20000394000C11F4882352F0BB0F40F4BF2B38
:101B300011F460FF04C06F5F7F4F8F4F9F4F089578
:101B400057FD9058440F551F59F05F3F71F047956E
:101B5000880F97FB991F61F09F3F79F08795089553
:101B6000121613061406551FF2CF4695F1DF08C072
:101B7000161617061806991FF1CF8695710561058F
:101B800008940895E894BB2766277727CB0197F937
:101B900008950E94540D08F48FEF08950E94E10DFE
:101BA0000C948F0D0E94810D38F00E94880D20F05A
:101BB000952311F00C94780D0C947E0D11240C9447
:101BC000C30D0E94A00D70F3959FC1F3950F50E0D7
:101BD000551F629FF001729FBB27F00DB11D639FDF
:101BE000AA27F00DB11DAA1F649F6627B00DA11D85
:101BF000661F829F2227B00DA11D621F739FB00D2B
:101C0000A11D621F839FA00D611D221F749F33279A
:101C1000A00D611D231F849F600D211D822F762F33
:101C20006A2F11249F5750409AF0F1F088234AF010
:101C3000EE0FFF1FBB1F661F771F881F915050407C
:101C4000A9F79E3F510580F00C94780D0C94C30DBC
:101C50005F3FE4F3983ED4F3869577956795B79503
:101C6000F795E7959F5FC1F7FE2B880F911D96951D
:101C7000879597F90895991B79E004C0991F9617E5
:101C800008F0961B881F7A95C9F780950895AA1BBE
:101C9000BB1B51E107C0AA1FBB1FA617B70710F057
:101CA000A61BB70B881F991F5A95A9F78095909589
:101CB000BC01CD01089597FB072E16F4009407D0C0
:101CC00077FD09D00E94470E07FC05D03EF49095A1
:101CD00081959F4F0895709561957F4F0895EE0F00
:101CE000FF1F0590F491E02D099410E0C2E7D0E0C9
:101CF00004C0FE010E946F0E2196C337D107C9F7B9
:041D0000F894FFCF85
:101D0400010D0E0A0D5E00BC0077010000000054B6
:0E1D140002B401E101A1021202F0010402007A
:00000001FF
