:100000000C9473000C949B000C949B000C949B002C
:100010000C949B000C949B000C949B000C949B00F4
:100020000C949B000C949B000C949B000C949B00E4
:100030000C949B000C949B000C949B000C949B00D4
:100040000C94C4040C949B000C9434050C940E0581
:100050000C949B000C949B000C949B000C949B00B4
:100060000C949B000C949B00005EBCE2613FDD831E
:10007000C29C7E20A3FD1F41009D23BE46DB65F888
:100080008C11AF32CA57E974000000080002010069
:100090000003040700000000000000000000000052
:1000A000250028002B0000000000240027002A0063
:1000B00000000000230026002900040404040404B6
:1000C0000404020202020202030303030303010207
:1000D00004081020408001020408102001020408D6
:1000E00010206605EE0911241FBECFEFD8E0DEBF59
:1000F000CDBF11E0A0E0B1E0E6E3F8E102C0059079
:100100000D92A433B107D9F722E0A4E3B1E001C016
:100110001D92A531B207E1F710E0C2E7D0E004C0BC
:100120002197FE010E94080CC137D107C9F70E9430
:100130001E060C940E0C0C94000090E0FC01E85795
:10014000FF4F2491FC01E253FF4F3491FC01E65430
:10015000FF4FE491EE23C9F0222339F0233001F15F
:10016000A8F4213019F1223029F1F0E0EE0FFF1F41
:10017000E456FF4FA591B4918FB7F894EC916111BB
:1001800026C030953E233C938FBF08952730A9F0B9
:100190002830C9F0243049F7809180008F7D03C05A
:1001A000809180008F7780938000DFCF84B58F7738
:1001B00084BDDBCF84B58F7DFBCF8091B0008F777E
:1001C0008093B000D2CF8091B0008F7DF9CF3E2BCD
:1001D000DACF3FB7F8948091390190913A01A0911C
:1001E0003B01B0913C0126B5A89B05C02F3F19F0FB
:1001F0000196A11DB11D3FBFBA2FA92F982F8827A7
:10020000BC01CD01620F711D811D911D42E0660F81
:10021000771F881F991F4A95D1F708958F929F9253
:10022000AF92BF92CF92DF92EF92FF926B017C016F
:100230000E94E9004B015C01C114D104E104F10406
:10024000B9F00E94E900681979098A099B09683E9A
:1002500073408105910580F321E0C21AD108E108BD
:10026000F10888EE880E83E0981EA11CB11CE4CF33
:10027000FF90EF90DF90CF90BF90AF909F908F90C6
:100280000895AF92BF92CF92DF92EF92FF920F93B9
:100290001F93CF93DF936C017B018B01040F151F1C
:1002A000EB015E01AE18BF08C017D10759F0699184
:1002B000D601ED91FC910190F081E02DC6010995E8
:1002C000892B79F7C501DF91CF911F910F91FF9095
:1002D000EF90DF90CF90BF90AF900895FC01538DC9
:1002E000448D252F30E0842F90E0821B930B541710
:1002F00010F0CF96089501970895FC01918D828D9D
:10030000981761F0A28DAE0FBF2FB11D5D968C9135
:10031000928D9F5F9F73928F90E008958FEF9FEF74
:100320000895FC01918D828D981731F0828DE80F30
:10033000F11D858D90E008958FEF9FEF0895FC01EA
:10034000918D228D892F90E0805C9F4F821B9109B7
:100350008F73992708958DE391E00E949F0121E01A
:10036000892B09F420E0822F089580E090E0892B0A
:1003700029F00E94AB0181110C9400000895FC014A
:10038000A48DA80FB92FB11DA35ABF4F2C91848DF6
:1003900090E001968F739927848FA689B7892C9353
:1003A000A089B1898C91837080648C93938D848DA6
:1003B000981306C00288F389E02D80818F7D8083A9
:1003C0000895EF92FF920F931F93CF93DF93EC0169
:1003D00081E0888F9B8D8C8D98131AC0E889F989EC
:1003E000808185FF15C09FB7F894EE89FF896083EF
:1003F000E889F98980818370806480839FBF81E070
:1004000090E0DF91CF911F910F91FF90EF900895B1
:10041000F62E0B8D10E00F5F1F4F0F731127E02E8C
:100420008C8D8E110CC00FB607FCFACFE889F989C4
:10043000808185FFF5CFCE010E94BF01F1CFEB8D0A
:10044000EC0FFD2FF11DE35AFF4FF0829FB7F89498
:100450000B8FEA89FB8980818062CFCFCF93DF93B6
:10046000EC01888D8823B9F0AA89BB89E889F989CC
:100470008C9185FD03C0808186FD0DC00FB607FC01
:10048000F7CF8C9185FFF2CF808185FFEDCFCE0134
:100490000E94BF01E9CFDF91CF910895DC0180E098
:1004A000615090F09D919827E92FEF70F0E0E859A6
:1004B000FF4F2491E92FE295EF70F0E0E858FF4FED
:1004C000E491822F8E27ECCF0895FC0113861586C8
:1004D000148612861186108617821682158214825F
:1004E00013820895DC012C911196ED91FC91F89402
:1004F0008181822B81839281322F30959323928345
:1005000087E090E00197F1F781818323818383E283
:1005100090E00197F1F790817894EFECF0E031975B
:10052000F1F7922381E009F480E00895FC019081C5
:100530000180F281E02D292F209560FF14C0F894EE
:100540008281822382838181892B8183A3E2B0E02F
:100550001197F1F78281982B9283789487ED90E040
:100560000197F1F70895F894828182238283818133
:10057000892B8183AFEFB0E01197F1F78281982B3F
:10058000928378948FE090E0EBCFDF92EF92FF922E
:100590000F931F93CF93DF93EC01D62EE42E08E048
:1005A00010E0FF24F39461E08D2D8F2109F460E0C9
:1005B000CE010E949602FF0C01501109A1F7E11033
:1005C00010C0F894E981FA8191818881809589230E
:1005D0008183E981FA819281888180958923828350
:1005E0007894DF91CF911F910F91FF90EF90DF9062
:1005F0000895EF92FF920F931F93CF93DF938C0197
:100600007B0140E065E50E94C502E70188E0E80E55
:10061000F11C699140E0C8010E94C502CE15DF05BA
:10062000C1F7DF91CF911F910F91FF90EF90089547
:10063000FC0190810180F281E02DF8948181292FC5
:1006400020958223818378943DE743E050E0315048
:1006500029F1DA011197F1F780818923C1F3F89428
:100660008281822382838181892B81837894ABE785
:10067000B7E01197F1F7F894818182238183A3E198
:10068000B1E01197F1F78081982381E009F080E0D3
:100690007894E3E6F6E03197F1F7089580E0089565
:1006A0006F927F928F929F92AF92BF92CF92DF9282
:1006B000EF92FF920F931F93CF93DF938C01EB0187
:1006C0008091E4019091E5010E941803882309F4C8
:1006D0003FC0B8018091E4019091E5010E94F902C8
:1006E00040E06EEB8091E4019091E5010E94C5022B
:1006F0007E016E0189E0C80ED11C8E01A090E4013C
:10070000B090E50188E0882E912C712C66246394CA
:10071000C5010E94720281117628660CE1E08E1AF2
:100720009108B1F7F80171928F01CE16DF0631F70B
:100730008091E4019091E5010E941803813041F419
:10074000F70181917F01811105C0E017F107C1F721
:1007500090E008C068E0CE010E944E0291E028853A
:100760002813F6CF892FDF91CF911F910F91FF9022
:10077000EF90DF90CF90BF90AF909F908F907F9041
:100780006F900895CF93DF93CDB7DEB729970FB65B
:10079000F894DEBF0FBECDBFFC012081203199F05F
:1007A000BE016F5F7F4F0E945003882331F08D811F
:1007B0008F33A9F020F48F31A1F080E007C08F358E
:1007C00021F08F37D1F78CE001C08BE029960FB66E
:1007D000F894DEBF0FBECDBFDF91CF9108958AE0C0
:1007E000F5CF89E0F3CFBF92CF92DF92EF92FF92E5
:1007F0000F931F93CF93DF93EC01B62EC72E8D85F9
:10080000811105C0CE010E94180381110EC01B8604
:100810001D861C8680E0DF91CF911F910F91FF9084
:10082000EF90DF90CF90BF90089540E060EFCE0151
:100830000E94C50201E0E12CD12C11E0CE010E9402
:100840007202F82ECE010E94720291E0F91218C0D5
:10085000813099F51134D8F2DB86D11002C081E0E5
:100860008D878B81882399F22396EB2DFC2DCF0168
:10087000089629912193E817F907D9F781E0CBCFA2
:10088000EE2DF0E0F8120FC08B851817A0F4DE01F2
:10089000AE0FBF1F13968C91802379F4F12C193081
:1008A00008F41C87D12EEC0FFD1F8381902F9095AB
:1008B000892383830AC08113F1CFFE01EE0DF11D60
:1008C0008381802B8383FF24F3946F2DCE010E94BC
:1008D00096021F5F000F11F4E39401E087E08E158C
:1008E00008F0ACCFB7CFFC0101900020E9F73197B9
:1008F000AF01481B590BBC018DE391E00C94410101
:100900008F929F92AF92BF920F931F93CF93DF93DB
:10091000CDB7DEB7A1970FB6F894DEBF0FBECDBF3F
:1009200019A2423008F44AE08E010F5D1F4F842E59
:10093000912CB12CA12CA50194010E94D20BE62F81
:10094000B901CA01EA30F4F4E05DD801EE938D01FB
:10095000232B242B252B79F790E080E0109719F0BA
:10096000CD010E947304A1960FB6F894DEBF0FBEAE
:10097000CDBFDF91CF911F910F91BF90AF909F900E
:100980008F900895E95CE1CF1F920F920FB60F92FE
:1009900011242F933F938F939F93AF93BF93809195
:1009A000350190913601A0913701B0913801309115
:1009B000340123E0230F2D3758F50196A11DB11DF9
:1009C000209334018093350190933601A093370131
:1009D000B09338018091390190913A01A0913B0187
:1009E000B0913C010196A11DB11D809339019093F6
:1009F0003A01A0933B01B0933C01BF91AF919F910D
:100A00008F913F912F910F900FBE0F901F901895CF
:100A100026E8230F0296A11DB11DD2CF1F920F927F
:100A20000FB60F9211242F933F934F935F936F93C1
:100A30007F938F939F93AF93BF93EF93FF938DE338
:100A400091E00E94BF01FF91EF91BF91AF919F9103
:100A50008F917F916F915F914F913F912F910F9067
:100A60000FBE0F901F9018951F920F920FB60F9206
:100A700011242F938F939F93EF93FF93E0914D0158
:100A8000F0914E018081E0915301F091540182FD7B
:100A90001BC09081809156018F5F8F732091570109
:100AA000821741F0E0915601F0E0E35CFE4F958F34
:100AB00080935601FF91EF919F918F912F910F900D
:100AC0000FBE0F901F9018958081F4CFCF93DF93C6
:100AD0001092400110923F0188EE93E0A0E0B0E058
:100AE0008093410190934201A0934301B09344014C
:100AF0008AE091E090933E0180933D0185EC90E087
:100B000090934A018093490184EC90E090934C01CA
:100B100080934B0180EC90E090934E0180934D01C7
:100B200081EC90E09093500180934F0182EC90E033
:100B3000909352018093510186EC90E09093540180
:100B40008093530110925601109257011092580150
:100B50001092590140ED50E0FA0164918CEB90E065
:100B6000FC0124912223C1F030E0220F331FF90150
:100B7000EA55FF4FA591B491F901E456FF4FC59195
:100B8000D4917FB7F8943C91262F209532233C9343
:100B90003881232328837FBFFA014491C7E0D2E044
:100BA00040930702FC018491E82FF0E0EE0FFF1F55
:100BB000E055FF4F8591949190930902809308022C
:100BC000CE010E9465021092F1011092F001109284
:100BD000DD01D093DB01C093DA01D093E501C0932E
:100BE000E4011092E2011092E3011092DC0189E02D
:100BF0008093DF0181E08093E0018093E101109216
:100C00000202109203021092040210920502109246
:100C100006021092FB011092FA011092FC01109250
:100C2000FD011092FE011092FF0188EE93E0909377
:100C3000010280930002DF91CF910895CF93DF935B
:100C4000CDB7DEB761970FB6F894DEBF0FBECDBF4C
:100C5000789484B5826084BD84B5816084BD85B597
:100C6000826085BD85B5816085BD80916E008160A3
:100C700080936E0010928100809181008260809349
:100C8000810080918100816080938100809180004B
:100C90008160809380008091B10084608093B10076
:100CA0008091B00081608093B00080917A00846070
:100CB00080937A0080917A00826080937A0080919C
:100CC0007A00816080937A0080917A0080688093B6
:100CD0007A001092C100EBEDF0E02491E7ECF0E037
:100CE0008491882399F090E0880F991FFC01EA55C0
:100CF000FF4FA591B491FC01E456FF4F859194916B
:100D00008FB7F894EC91E22BEC938FBFE0914D01FB
:100D1000F0914E0182E08083E0914901F0914A0117
:100D20001082E0914B01F0914C0180E180831092A0
:100D30005501E0915101F091520186E08083E091EC
:100D40004F01F0915001808180618083E0914F01DB
:100D5000F0915001808188608083E0914F01F09193
:100D60005001808180688083E0914F01F0915001B3
:100D700080818F7D808388E191E00E94730484E20A
:100D800091E00E9473048091E4019091E5010E943A
:100D900065021092E2011092E30111E0BE016F5F63
:100DA0007F4F8091E4019091E5010E94F303882335
:100DB00009F45FC067E0CE0101960E944E0298855B
:100DC0008913ECCF8091DC01811128C08091E4016E
:100DD0009091E5010E941803BE016F5F7F4F8091E3
:100DE000E4019091E5010E94F90240E064EB8091FA
:100DF000E4019091E5010E94C5028091E401909187
:100E0000E5010E947202082F8091E4019091E501B2
:100E10000E941803011102C01093DC010091DF0150
:100E2000CE0101960E94C2038017C0F48091DF01B9
:100E30008093DF018091E2018F5F8093E2018981DD
:100E4000883231F080F4803119F0823209F0A6CF77
:100E50008091E3018F5F8093E301A0CFCE010196E3
:100E60000E94C203E5CF8B3399F3823409F096CF09
:100E7000EFCF8091E20190E09093FB018093FA0123
:100E80008091DA019091DB010E94650262EF71E0CE
:100E90008091DA019091DB010E94F30382EF91E0EF
:100EA0000E94C2038C3009F48AC0BE016F5F7F4F7D
:100EB00082EF91E00E945003882309F480C0809162
:100EC000F201803109F47BC08FE78D838091E401CA
:100ED0009091E5010E94180362EF71E08091E401B6
:100EE0009091E5010E94F90240E06EE48091E401F6
:100EF0009091E5010E94C50240E06B818091E40180
:100F00009091E5010E94C50240E06C818091E4016E
:100F10009091E5010E94C5028091F201803141F07B
:100F200040E06D818091E4019091E5010E94C5024D
:100F30008091E4019091E5010E94180362EF71E055
:100F40008091E4019091E5010E94F9024091DC0159
:100F500068E48091E4019091E5010E94C50264E19A
:100F600070E080E090E00E940E018091DC01882317
:100F7000C1F08091DD01882329F060E08091DE01DD
:100F80000E949D006AE070E080E090E00E940E0107
:100F90008091DD01882329F061E08091DE010E94CB
:100FA0009D008091E4019091E5010E9418038091D9
:100FB000DF018D3008F0AFC08CE08093DF0188E85E
:100FC00093E1909301028093000200E010E08FB75C
:100FD000F89440913501509136016091370170913C
:100FE00038018FBF20910002309101028091FC01F5
:100FF0009091FD01A091FE01B091FF01820F931F1E
:10100000A11DB11D84179507A607B70708F02AC1CF
:1010100061E08DE00E949D002FB7F894809135012A
:1010200090913601A0913701B09138012FBF809384
:10103000FC019093FD01A093FE01B093FF0180910C
:10104000E4019091E5010E94180340E06CEC80916E
:10105000E4019091E5010E94C5024091DC0164E445
:101060008091E4019091E5010E94C5028091E00128
:10107000882309F442C0E091DF01E9508EEE92E04E
:10108000E33038F4F0E0EE0FFF1FE050FF4F8081B7
:1010900091816C01990FEE08FF088091E10188238E
:1010A00009F47AC08091DC01811176C08FB7F89481
:1010B0008090350190903601A0903701B0903801B2
:1010C0008FBF8091E4019091E5010E94720281300E
:1010D000A1F02FB7F8948091350190913601A0913D
:1010E0003701B09138012FBF88199909AA09BB09A6
:1010F0008C159D05AE05BF0520F3BE016F5F7F4FC8
:1011000082EF91E00E94500381115EC060E070E0C8
:101110008EEF92EC98C08CE08093DF0110E000E04D
:101120008091E2018017110609F00CF448CFE02EFF
:101130008091E4019091E5010E946502F12CBE01CD
:10114000665F7F4F8091E4019091E5010E94F30377
:10115000882329F0EF1491F0F394EF1480F7F090C6
:10116000DF01CE010A960E94C2038F1580F48091A0
:10117000DF018093DF010F5F1F4FD2CF67E0CE0109
:101180000A960E944E0299898913E6CFE8CFCE01D4
:101190000A960E94C203EDCF8091DD01882329F0D9
:1011A00060E08091DE010E949D00C701B6010E94AF
:1011B0000E018091DD01882309F49FCF61E08091C9
:1011C000DE010E949D0099CF6A8170E0762F66272C
:1011D000770F770F770F298148E0249F9001112422
:1011E000262B372B8091F2018031E1F4688566234C
:1011F000C9F070E08F81AB01481B5109CA01969577
:10120000982F8827979587950E94BE0BCB018097D2
:10121000B90153E0660F771F5A95E1F760789C019A
:10122000260F371F213854EE35070CF46FCFB90164
:10123000330F880B990B0E94970A20E030E040E0C2
:101240005CE30E944C0B6093020270930302809354
:1012500004029093050281E08093060260E08DE035
:101260000E949D00809106028823D1F01092060210
:10127000C0900202D0900302E0900402F0900502B8
:10128000A7019601C701B6010E94B90B8823A1F0FE
:1012900087E291E00E94730484E291E00E9473046B
:1012A0000115110509F493CE0E94AB01882309F4BE
:1012B0008ECE0E9400008BCE46015701E894B7F80D
:1012C0002FEF3FEF4FE75FE7C501B4010E94B90B75
:1012D00081110DC02FEF3FEF4FE75FE7C501B4016C
:1012E0000E94610A18161CF48BE291E0D3CF2FEF15
:1012F0003FEF4FE75FE4C701B6010E94470B1816A6
:101300001CF48FE291E0C6CF2FEF3FEF4FE75FEC89
:10131000C701B6010E94610A87FDF3CF20E030E0EB
:10132000A901C701B6010E94610A87FF09C06DE2E9
:101330008DE391E00E94E101F7FAF094F7F8F09460
:101340002AE037ED43EA5BE3C701B6010E94F509E5
:101350004B015C010E94660A6B017C010E94950AA8
:101360009B01AC01C501B4010E94F4094B015C0171
:101370004AE0C701B6010E9480046EE28DE391E06D
:101380000E94E10120E030E040E251E4C501B401F7
:101390000E944C0B4B015C010E94660A6B01F12C10
:1013A000E12C4AE0C701B6010E948004C701B601E2
:1013B0000E94950A9B01AC01C501B4010E94F40989
:1013C00020E030E040E251E40E944C0B0E94660AAB
:1013D00090E080E04AE00E9480045ECF8091DA01D4
:1013E0009091DB010C9418035058BB27AA270E9448
:1013F0000C0A0C940D0B0E94FF0A38F00E94060B99
:1014000020F039F49F3F19F426F40C94FC0A0EF4F2
:10141000E095E7FB0C94F60AE92F0E941E0B58F3A7
:10142000BA17620773078407950720F079F4A6F5C9
:101430000C94400B0EF4E0950B2EBA2FA02D0B014F
:10144000B90190010C01CA01A0011124FF27591B09
:1014500099F0593F50F4503E68F11A16F040A22F0F
:10146000232F342F4427585FF3CF46953795279580
:10147000A795F0405395C9F77EF41F16BA0B620B7F
:10148000730B840BBAF09150A1F0FF0FBB1F661FC6
:10149000771F881FC2F70EC0BA0F621F731F841F09
:1014A00048F4879577956795B795F7959E3F08F02F
:1014B000B0CF9395880F08F09927EE0F97958795F1
:1014C00008950E94D20A08F481E008950E94260B34
:1014D00088F09F5798F0B92F9927B751B0F0E1F0F5
:1014E000660F771F881F991F1AF0BA95C9F714C0A5
:1014F000B13091F00E94400BB1E008950C94400B84
:10150000672F782F8827B85F39F0B93FCCF38695DD
:1015100077956795B395D9F73EF49095809570953A
:1015200061957F4F8F4F9F4F0895E89409C097FBB7
:101530003EF490958095709561957F4F8F4F9F4FAA
:101540009923A9F0F92F96E9BB279395F6958795EE
:1015500077956795B795F111F8CFFAF4BB0F11F4B1
:1015600060FF1BC06F5F7F4F8F4F9F4F16C0882358
:1015700011F096E911C0772321F09EE8872F762F8E
:1015800005C0662371F096E8862F70E060E02AF0CF
:101590009A95660F771F881FDAF7880F96958795BB
:1015A00097F90895990F0008550FAA0BE0E8FEEF90
:1015B00016161706E807F907C0F012161306E40717
:1015C000F50798F0621B730B840B950B39F40A2610
:1015D00061F0232B242B252B21F408950A2609F4EE
:1015E000A140A6958FEF811D811D089597F99F67F2
:1015F00080E870E060E008959FEF80EC089500249B
:101600000A941616170618060906089500240A9467
:1016100012161306140605060895092E0394000CED
:1016200011F4882352F0BB0F40F4BF2B11F460FF7C
:1016300004C06F5F7F4F8F4F9F4F089557FD9058A5
:10164000440F551F59F05F3F71F04795880F97FB86
:10165000991F61F09F3F79F0879508951216130640
:101660001406551FF2CF4695F1DF08C0161617066F
:101670001806991FF1CF86957105610508940895A4
:10168000E894BB2766277727CB0197F908950E9436
:10169000D20A08F48FEF08950E945F0B0C940D0B93
:1016A0000E94FF0A38F00E94060B20F0952311F0EB
:1016B0000C94F60A0C94FC0A11240C94410B0E9421
:1016C0001E0B70F3959FC1F3950F50E0551F629F5D
:1016D000F001729FBB27F00DB11D639FAA27F00D8B
:1016E000B11DAA1F649F6627B00DA11D661F829FB2
:1016F0002227B00DA11D621F739FB00DA11D621F97
:10170000839FA00D611D221F749F3327A00D611DB3
:10171000231F849F600D211D822F762F6A2F112495
:101720009F5750409AF0F1F088234AF0EE0FFF1FC8
:10173000BB1F661F771F881F91505040A9F79E3F1F
:10174000510580F00C94F60A0C94410B5F3FE4F3D2
:10175000983ED4F3869577956795B795F795E79575
:101760009F5FC1F7FE2B880F911D9695879597F97E
:1017700008950E94D20A880B990B089597FB072EB3
:1017800016F4009407D077FD09D00E94F40B07FCF3
:1017900005D03EF4909581959F4F08957095619581
:1017A0007F4F0895A1E21A2EAA1BBB1BFD010DC09D
:1017B000AA1FBB1FEE1FFF1FA217B307E407F50701
:1017C00020F0A21BB30BE40BF50B661F771F881FDD
:1017D000991F1A9469F760957095809590959B0173
:1017E000AC01BD01CF010895AA1BBB1B51E107C08D
:1017F000AA1FBB1FA617B70710F0A61BB70B881FA1
:10180000991F5A95A9F780959095BC01CD0108952F
:10181000EE0FFF1F0590F491E02D099410E0C2E750
:10182000D0E004C0FE010E94080C2196C337D10706
:06183000C9F7F894FFCF98
:101836005E00BC00770100000000E10141016E017D
:101846002E029F017D0191015374617274696E6766
:101856002E2E2E000D0A006E616E00696E66006FF8
:0418660076660000A2
:00000001FF
